:020000040801F1
:1000000000040020FD020108FF020108FF020108B0
:10001000FF020108FF020108FF020108FF020108B8
:10002000FF020108FF020108FF020108094E010852
:10003000FF020108FF020108FF020108FF02010898
:10004000FF020108FF020108FF020108FF02010888
:10005000FF020108FF020108FF020108FF02010878
:10006000FF020108FF020108FF020108FF02010868
:10007000FF020108FF020108FF020108FF02010858
:10008000FF020108FF020108FF020108FF02010848
:10009000FF020108FF020108FF020108FF02010838
:1000A000FF020108FF020108FF020108FF02010828
:1000B0002F590108FF020108FF020108FF02010891
:1000C000FF020108FF020108FF020108FF02010808
:1000D000FF020108FF020108FF020108FF020108F8
:1000E000FF020108FF020108FF020108FF020108E8
:1000F000FF020108FF020108FF020108FF020108D8
:10010000FF020108FF020108FF020108FF020108C7
:10011000FF020108FF020108FF020108FF020108B7
:10012000FF020108FF020108FF020108FF020108A7
:10013000FF020108FF020108FF020108FF02010897
:10014000FF020108FF020108FF02010831620108F5
:10015000FF020108FF020108FF020108FF02010877
:10016000FF020108FF020108FF020108FF02010867
:10017000FF020108FF020108FF020108FF02010857
:10018000FF020108FF020108FF020108FF02010847
:10019000FF020108FF020108FF020108FF02010837
:1001A000FF020108FF020108FF020108FF02010827
:1001B000FF020108FF020108FF020108FF02010817
:1001C000FF020108FF020108FF020108FF02010807
:1001D000FF020108FF020108FF020108FF020108F7
:1001E00072B6374880F30888364880F30988364865
:1001F0003649086040F20000CCF200004EF634713F
:10020000CEF200010860BFF34F8FBFF36F8F40F253
:100210000000C0F2F0004EF68851CEF200010860F6
:10022000BFF34F8FBFF36F8F4FF00000E1EE100A66
:100230004EF63C71CEF200010860062080F314886F
:10024000BFF36F8F04F0C8FA04F0A8F84FF05530F0
:100250001F491B4A91423CBF41F8040BFAE71D4974
:10026000184A91423CBF41F8040BFAE71A491B4A6D
:100270001B4B9A423EBF51F8040B42F8040BF8E7BF
:1002800000201849184A91423CBF41F8040BFAE794
:1002900004F0A6FA04F0A1FA144C154DAC4203DAAE
:1002A00054F8041B8847F9E701F0DDFF114C124DAB
:1002B000AC4203DA54F8041B8847F9E704F08EBA1D
:1002C00000040020000C00200000010808ED00E000
:1002D0000000002000040020B46F0108000C002082
:1002E000640D0020680D0020A0160020E001010828
:1002F000E0010108E0010108E001010870E700F0F9
:1003000000F8FEE72DE9F04F2DED108AC1F80CD072
:10031000C3689D46BDEC108ABDE8F08F002383F3CF
:1003200011882846A047002004F0F2FCFEE704F004
:100330004BFC00DFFEE7000053B94AB9002908BFB3
:1003400000281CBF4FF0FF314FF0FF3000F00CB819
:10035000ADF1080C6DE904CE06F07CF9DDF804E09F
:10036000DDE9022304B07047704700BF032A70B470
:1003700012D940EA0105AD0704460B4620D11946C3
:10038000204653F8045B54F8046BAE4218D1043A8B
:10039000032A20461946F2D8541E72B103780A780F
:1003A0009A4208BF241806D00CE010F8013F11F85B
:1003B000012F934206D1A042F7D1002070BC7047B4
:1003C000541EEBE7981A70BC704700BF844641EAA0
:1003D000000313F003036DD1403A41D351F8043BBD
:1003E00040F8043B51F8043B40F8043B51F8043B0F
:1003F00040F8043B51F8043B40F8043B51F8043BFF
:1004000040F8043B51F8043B40F8043B51F8043BEE
:1004100040F8043B51F8043B40F8043B51F8043BDE
:1004200040F8043B51F8043B40F8043B51F8043BCE
:1004300040F8043B51F8043B40F8043B51F8043BBE
:1004400040F8043B51F8043B40F8043B51F8043BAE
:1004500040F8043B51F8043B40F8043B403ABDD21D
:10046000303211D351F8043B40F8043B51F8043BBF
:1004700040F8043B51F8043B40F8043B51F8043B7E
:1004800040F8043B103AEDD20C3205D351F8043B4E
:1004900040F8043B043AF9D2043208D0D2071CBF1A
:1004A00011F8013B00F8013B01D30B880380604643
:1004B000704700BF082A13D38B078DD010F00303B9
:1004C0008AD0C3F10403D21ADB071CBF11F8013B29
:1004D00000F8013B80D331F8023B20F8023B7BE778
:1004E000043AD9D3013A11F8013B00F8013BF9D2A3
:1004F0000B7803704B7843708B788370604670473D
:10050000F0B4860746D0541E002A3CD0CAB2034637
:1005100002E014F1FF3436D303F8012B9D07F8D124
:10052000032C29D9CDB245EA05250F2C45EA05450E
:1005300033D9A4F11006360903F1200707EB06179B
:1005400003F1100242E9045542E902551032BA4261
:10055000F8D1721C14F00C0F03EB021204F00F061A
:1005600013D0331F23F003030433134442F8045B16
:100570009342FBD106F003042CB1C9B21C4403F82A
:10058000011B9C42FBD1F0BC704734461346002C43
:10059000F3D1F8E714460346C2E71A462646E0E7D9
:1005A0002DE9F047204E052530274FF001084FF088
:1005B000000956F8041B4A1C11D087F3118821F05A
:1005C0000F0A01F00F0108FA01F4214601225046FA
:1005D000A4B205F076FAAAF81A4089F31188013D11
:1005E00015F0FF05E5D1114DDFF8448005243026D4
:1005F000012755F8040B431C10D086F3118800F036
:100600000F01002207FA01F120F00F0005F059FA5E
:10061000404604F082FB002383F31188013C14F070
:10062000FF04E6D1BDE8F087046A0108186A0108F2
:10063000400D0300F8B5274F57F8213016465A1CD5
:1006400004460D4644D0302282F3118823F00F0176
:1006500003F00F02012393409BB20B83002383F32B
:1006600011884FF4E45004F001F91B49204604F1CD
:10067000050C6FEA060E51F8044B631C0DD024F0F4
:100680000F0304F00F041A69037822FA04F4E40754
:100690004CBF33430EEA0303037001308445EAD1B3
:1006A00057F825305A1C0DD0302282F3118823F0E0
:1006B0000F0103F00F02012393409BB24B830023F1
:1006C00083F31188BDE8F8404FF4255004F0CEB80C
:1006D000F8BD00BF046A0108186A010873B5002458
:1006E000064600948DF8044001252A46E1B268468A
:1006F0000134FFF79FFF6D00052CEDB2F5D12246C6
:1007000069463046FFF732FE002814BF0125002558
:1007100004D0224669463046FFF758FE284602B00C
:1007200070BD08B538B921B1A92000F046FA002003
:1007300008BDAA20F9E70128F9D109B15220F4E750
:100740005120F2E7022070470120704701207047D6
:1007500008B5FFF7FBFF08BD704708B5FFF7FCFFC2
:1007600008BD000013B502AB03E903000F4B1B7873
:10077000B3B99DF8023073B16AB100F0B3FD04461D
:100780000146009800F07AFD0099204602B0BDE8CD
:10079000104003F006B8009800F08CFD0446F3E723
:1007A000009800F09FFD0099F0E700BF6D0D00205C
:1007B000034610B400885C880A4640EA04409988E1
:1007C0005DF8044BFFF7CEBF0120704710B5002144
:1007D0000446FFF7EDFF2146FFF7BFFF10BD10B540
:1007E000012404FA01F104FA02F20A43D1B20240F0
:1007F0008A4204FA03F306BF1843C0B2984310BDFF
:1008000008B513460A46014603480078FFF7E7FF9C
:10081000BDE8084000F0B0BC6F0D002001F0BFBC87
:1008200001F0C2BC704708B500F024FCFFF7FAFFE6
:10083000BDE8084046F2A81004F06FBA08B5FFF70B
:10084000F2FFBDE8084003F07BBA08B5FFF7EBFF05
:10085000BDE8084003F070BA38B501210546FFF73E
:10086000A7FF2946044602F075FB08B9002038BDF1
:1008700029462046FFF76CFF0028F7D0294620467E
:1008800003F096F80028F1D02946204602F07EFCBD
:100890000028EBD02946204603F008F80028E5D0D0
:1008A000AB787BB145F65B539C4226D00ED845F61B
:1008B000DE439C4218D045F65A539C421AD0B4F5F8
:1008C000B84F0ED02846FFF73FFFD0E745F65C5300
:1008D0009C420CD045F6A7539C42F3D1FFF7B5FFDD
:1008E000C4E7FFF7ABFFC1E701F098F9F6E701F0C5
:1008F000EDF8E7E701F0F6F8E4E701F0F6F8E1E7F4
:1009000008B503F06EF9BDE8084000F01BB808B563
:1009100000F01DF8BDE8084003F068B9704708B55D
:10092000FFF7FCFF08BD0120704708B5FFF7FBFF8C
:1009300008BD704710B50446FFF7F1FF2046FFF7EA
:10094000F4FF10BD08B50020FFF7F4FF08BD08B59F
:1009500003F08EF8FFF7EEFF08BD000010B503F0BE
:1009600087F8074B1A788242044607D0187003F0C4
:100970008FF9044B18602046FFF7DCFF10BD00BF65
:100980006C0D0020680D002030B587B06C4684E8FF
:1009900003009DF80230BDF804500BB100F0D8FF01
:1009A0000023ADF8163094E8030004AC0490ADF8D1
:1009B000141094E8030002904DB1BDF808204FF6E2
:1009C000FF739A4203D02046FFF7FEFE18B194E869
:1009D000030000F0F3FE07B030BD008800F0A2BCB9
:1009E00010B50446002876D0822813D103F040F8D1
:1009F000810770D4392000F04FFF00F0D9FF4FF489
:100A0000FA5004F08AF9392000F04EFFBDE810409A
:100A100000F0CEBF83280ED103F02AF8C2075AD4C3
:100A2000532000F039FF00F0C3FF42F2107004F0D1
:100A300074F95320E8E784280ED103F019F843072E
:100A400049D4472000F028FF00F0B2FF42F21070B6
:100A500004F063F94720D7E7031FDBB2A02B0ED8C1
:100A60001D4B0146186803F04BF820B1204600F0FA
:100A70001BFF00F09DFF204600F00EFFC6E700F1CF
:100A80002003DBB2072B07D800F007040120A040A9
:100A9000C0B200F037FFB9E700F15B03DBB2022B15
:100AA00005D82438BDE8104080B202F0FBBF00F149
:100AB0005803DBB2162B06D8084ABDE8104032F8BE
:100AC000130002F0FFBFEF2805D901F045FCBDE897
:100AD000104001F015BD10BD000C0020906A010807
:100AE00008B5002858D082280FD102F0C1FF810735
:100AF00052D5392000F0D0FE00F05AFF392000F026
:100B0000D3FEBDE8084000F053BF83280AD102F0AD
:100B1000AFFFC20740D5532000F0BEFE00F048FFF3
:100B20005320ECE784280AD102F0A2FF430733D513
:100B3000472000F0B1FE00F03BFF4720DFE7021F37
:100B4000D2B2A02ADBD900F12002D2B2072A07D8FC
:100B500000F0070301209840C0B200F0DBFED0E7B0
:100B600000F15B02D2B2022A04D8BDE8084000209E
:100B700002F098BF00F15802D2B2162A04D8BDE89C
:100B80000840002002F09EBFEF2805D901F042FC8A
:100B9000BDE8084001F0B4BC08BD38B505460C46B8
:100BA000FFF71EFF1CB92846FFF79AFF38BD6420E7
:100BB000013C04F0B2F8A4B2F4E708B539280CBF40
:100BC00050210021FFF7E9FF08BD08B528B100F06A
:100BD00099FEBDE8084000F0EBBE08BD08B528B19D
:100BE00000F098FEBDE8084000F0E2BE08BD00003D
:100BF0002DE9F34790F80680857881460C4600F091
:100C000071FE4FEA18180646C8B12E46BDB1C4F3AE
:100C1000072303F0F003402B04D004F12003DBB2E0
:100C2000072B1FD9A74B5E7816F0040607D00220C9
:100C300000F018FF00F056FE80F00100C6B2C4F3C9
:100C4000033ABAF10B0F3CD8DFE81AF00E000E00A1
:100C50005D005D00C800E0003B003B00EA004A0187
:100C6000590159010026EAE7C4F30723C4F3032717
:100C700013F0F00F18BF3F01E4B285B157B104F192
:100C80002003DBB2072B384600D92CB900F03AFE1E
:100C900000F08EFE20465DE000F04AFEF8E72046B8
:100CA000FFF71EFF6FB104F12003DBB2072B3846BC
:100CB00000D914B900F02EFE01E000F041FE00F072
:100CC00077FEAAF1080ABAF1030F03D802F0D0FEAA
:100CD000FFF730FE002E00F0708100F0FBFD10F0F9
:100CE000010040F06A8189F8020000F0EBFD00F09D
:100CF00059FA484600F07AF900F0E4FD02B0BDE888
:100D0000F04700F05BBAC4F3072303F0F003C4F329
:100D10000327202BE4B218BF3F017CB1012C45D042
:100D2000002D4DD0B8F1000F44D099F80630DA0705
:100D3000B0D56FF3071389F806303BE0614B5B7861
:100D4000590711D44DB127B1384600F0DBFD00F052
:100D50002FFE0020FFF744FEB3E72846FFF7C0FE52
:100D6000002FAED03846A5E79DB1B8F1000F06D1EF
:100D700000F0F4FD3843C0B2FFF727FFA1E7B8F158
:100D8000010FF5D100F0EAFD3843C0B200F0F2FDEA
:100D900097E7B8F1000F05D100F0FEFD3846FFF7E8
:100DA0001DFF8EE7B8F1010F8BD0F5E725B1B8F143
:100DB000050F86D83846DFE7B8F1040F81D8EDE794
:100DC000B8F1000FEAD0392C0CBF4FF4FA500120D3
:100DD00003F0A3FF2046FFF783FE72E714F4406F91
:100DE000C4F3812308D0012B7FF46BAF65B1C4F34A
:100DF000090002F067FE64E725B1C4F3090002F0C0
:100E000051FE5EE72846FAE72846F2E7E0B225B150
:100E100001F0A2FA01F074FB53E701F0FBFAF9E7E5
:100E200014F4407F29D1002D7FF44BAFC4F342105E
:100E30008000C2B204F00F0014F0100300FA02F0B8
:100E4000C5B21EBF0F209040C043C4F3812418BF19
:100E5000C3B2022C43EA050009D0032C0AD0012CAE
:100E600002D000F073F92CE700F068F929E700F0F0
:100E700075F926E700F05FF923E7C4F301221DB3FB
:100E800012F0010F3FF41DAFC4F342108000C2B254
:100E900004F00F0014F0100300FA02F0C5B21EBFF8
:100EA0000F209040C043C4F3812418BFC3B2022C6A
:100EB00043EA05000ED0032C0FD0012C07D000F020
:100EC0009DF9FEE6AC15002012F0020FDAE700F003
:100ED0008DF9F6E600F09AF9F3E600F04DF9F0E648
:100EE000E7B2C4F303241DB1204600F05BF961E7CB
:100EF0003846FFF773FE204600F060F9E1E6E7B2FE
:100F0000A7F1F003042B40D8DFE803F00324101707
:100F1000200045B1B8F1040F3FF6D3AEC4F304206E
:100F200000F058F9CDE6B8F1050FF5E7C4F3042059
:100F3000002DE1D100F036F9C3E625B1C4F3042059
:100F400000F029F9BDE600F023F9BAE61C4B5B7806
:100F50005B0704D4C4F30420002DCDD0EAE74DB1E3
:100F6000C4F30420019000F01DF90198032100F062
:100F700055FDA6E6012000F075FDB8F1010F7FF6E2
:100F8000A0AE022000F06EFD9BE63DB1B8F1000F6F
:100F900001D03846DEE6C4F30420CBE7B8F1000FF9
:100FA00008D0392F0CBF4FF4FA50012003F0B5FEE2
:100FB000384610E7C4F304209EE702B0BDE8F0878E
:100FC000AC15002013B501880446807800F0B6F90E
:100FD0000146019100F022F900F0ACF80199204699
:100FE00002B0BDE81040FFF703BE000013B5044691
:100FF000014606226846FFF7E9F9A388F3B1BDF878
:1010000000204FF6FF739A4218D02046FFF724FCC9
:1010100070B900F067FC88B1A3787BB1084B5B78AE
:101020005B070BD5022002B0BDE8104000F01ABDEE
:101030002046FFF7C7FF2046FFF7C8FB02B010BDF0
:10104000AC15002008B5002002F02CFD002002F0B5
:1010500039FD00F07DFC00F0ABFC01F06DFABDE85D
:10106000084001F04DBA08B500F026FCBDE8084084
:10107000FFF7E8BF08B500F055FCBDE80840FFF7F2
:10108000F2BFC0F30333062BC2B213D094BF0E33AA
:10109000063303F00F03012B10D8F02A10D004D828
:1010A000E72A8CBF002001207047F42A14BF0020DB
:1010B00001207047E72A03D9F12AF7E7002070479B
:1010C0000120704713B50446014606226846FFF723
:1010D0007DF9A3886BB1BDF800204FF6FF739A42EB
:1010E00007D0208800F01EF902B0BDE81040FFF7DD
:1010F000C8BF002002B010BD82B002AB03E90300FC
:1011000002B0704782B002AB03E9030002B070473F
:10111000704708B5FFF7FCFF08BD000008B5FFF7F2
:10112000F8FF034B1870BDE80840FFF78BBF00BF06
:101130006E0D00207047FFF7F1BF0000024B1B78D7
:101140001843FFF7EBBF00BF6E0D0020024B1B786A
:101150001840FFF7E3BF00BF6E0D0020024B1B7865
:101160005840FFF7DBBF00BF6E0D0020704708B589
:10117000FFF7FCFF08BD000008B5FFF7F8FF034BC1
:101180001870BDE80840FFF75DBF00BF6F0D00207D
:101190000020FFF7F1BF012303FA00F0C0B2FFF710
:1011A000EBBF0000012303FA00F0034B1B78184348
:1011B000C0B2FFF7E1BF00BF6F0D0020012303FAAB
:1011C00000F0034B1B7823EA0000FFF7D5BF00BFF8
:1011D0006F0D0020012303FA00F0034B1B785840E9
:1011E000C0B2FFF7C9BF00BF6F0D0020024B1B78D4
:1011F0001843FFF7C1BF00BF6F0D0020024B1B78E3
:101200001840FFF7B9BF00BF6F0D0020024B1B78DD
:101210005840FFF7B1BF00BF6F0D0020704701F0CD
:101220000703C90830B501EB4101012401399C4095
:101230000A44E4B2002112F8015F20FA01F343F3FB
:1012400000036B40234001316B4003291370F2D13E
:1012500030BD10B500F00704C00800EB40000022CC
:10126000014410468B5CE34003F0010393400132DC
:101270001843032AC0B2F5D110BD000017B40C46C4
:10128000C0F307210429ADF804000DD89DF80430FF
:10129000042B09D803EB8103054A1944204603B007
:1012A0005DF8044BFFF7BBBF03B05DF8044B70471C
:1012B000700D002082B0ADF80400C0F307200428B0
:1012C0000AD89DF80430042B06D8054900EB8000AD
:1012D000184402B0FFF7BDBF002002B0704700BF46
:1012E000700D002073B50D4BADF804001E780C4B4B
:1012F0001B7807241E4346FA04F3DB07E5B205D446
:10130000013CF8D20025284602B070BD019928465C
:1013100000F016FE80B20128F2D0F4E76F0D002035
:101320006E0D002007B5ADF804000198FFF7DAFF55
:10133000019903B05DF804EB00F002BE13B5104B49
:10134000ADF804101B782BB1019802B0BDE8104035
:10135000FFF7E8BF70B10198FFF7C4FF04460146EC
:101360000198FFF78BFF0199204602B0BDE81040BD
:1013700000F0E6BD0198FFF79DFF0446F3E700BFCC
:101380006D0D0020F8B50C4B0C4E1C780C4D3378CD
:10139000A34200D1F8BD05EBC40335F834005F88E3
:1013A0009A88D98840EA074042EA01410134FFF7B0
:1013B000A9FE04F00704EAE7C50D0020C40D0020D3
:1013C000840D0020064B10B418885C889A88D98850
:1013D00040EA044042EA01415DF8044BFFF792BE47
:1013E0007C0D0020F7B5224CA37913F0F00F08D143
:1013F000A37833B11F4B204F1D78204E3B78AB4272
:1014000001D103B0F0BD214606226846FEF7DEFF9B
:10141000A18841B3BDF800204FF6FF739A4222D055
:1014200006EBC50360785A7890421CD1207816F8F4
:101430003520904217D19A78AAB99A88521A92B256
:10144000C72A10D8A2790A48012161F30712A271B4
:101450009A7961F307129A71FFF7C8FD03B0BDE8EE
:10146000F040FFF78FBF013505F00705C6E700BF65
:101470007C0D0020C50D0020C40D0020840D00202F
:101480002DE9F04FAE4D87B004460146062202A872
:10149000FEF79CFF0622294604A894F800B094F8B1
:1014A00001A0A778B4F80480FEF790FFAB88002B6A
:1014B00000F0FF80BDF810204FF6FF718A4200F067
:1014C000F880AE78002E00F0F480A8EB030295F8C7
:1014D000069092B2C72A09F0F00900F2B580062200
:1014E000294604A8B9F1000F71D1FEF76FFFBDF8CE
:1014F00010204FF6FF718A42B94614D021889142DC
:1015000011D187B9AB79012262F30713AB71FFF7F1
:1015100059FF2846FFF76AFDAB79A37100263046D4
:1015200007B0BDE8F08F8DF808B08DF809A08DF8F0
:1015300010B08DF811A0B8F1000F23D0BDF8101035
:101540004FF6FF7291421DD0F7B97E497E4A0D7861
:1015500012787E49AA421CD10298FFF7E3FEC0F33D
:101560000332012AC3B224D90E3202F00F02012A3B
:1015700028D810F4706F21D0A27912F0F00F1DD18D
:101580004E46CCE7002FC9D0AB7943F00103AB71D5
:10159000C4E701EBC2004778574506D111F8327015
:1015A0005F4502D180780028B8D1013202F00702ED
:1015B000D0E710F4706F01D0002BE1D02033DBB204
:1015C000072BDDD92046FFF711FDB146D8E7FEF71E
:1015D000FDFEBDF810304FF6FF72934210D0228806
:1015E0009A420DD167B9AB79A3712046FFF7FEFC93
:1015F000082221462846FEF7E9FEFFF7E3FE8EE7C4
:101600002046FFF75FFDD8B1D7B1AB791F2B0CD9BE
:101610002A88ADF8102004A800228DF81220ADF819
:1016200014808DF81630FFF7E1FC0822214644486B
:10163000FEF7CCFEFFF7D6FEFFF7C4FE01266EE7ED
:101640002046FFF7D3FCF9E7B9F1000F15D102AB43
:101650008DF808B08DF809A08DF80A7093E80300A2
:10166000FFF74AFD2846FFF7C1FC082249462846F5
:10167000FEF746FFFFF7A6FE82E70622294604A8EA
:10168000FEF7A4FEBDF810304FF6FF729342B7D0BC
:101690002A8823889A42B3D1002FB1D1AB79A371A4
:1016A0002046FFF7A3FC082239462846FEF728FF0C
:1016B00035E723490193062204A8FEF787FE019B24
:1016C000002B64D0BDF810204FF6FF794A455ED05C
:1016D000AE78002E5BD1A8EB03081FFA88F8B8F1AA
:1016E000C70F43D83E46002FAAD01549062204A8AA
:1016F000FEF76CFEBDF810304B4529D02A882388B0
:101700009A4225D1AB79DA0713D413F0F00210D046
:10171000F02AA37106D0DBB2C3F30312013262F3E5
:101720000713A3712046FFF761FC054808222146F4
:1017300061E7082221460248FEF748FEEFE600BFB7
:101740007C0D0020C40D0020C50D0020840D00205C
:101750002046FFF7B7FC00287FF467AFAB7920463F
:1017600043F00103AB71FFF741FCD8E68DF808B0F8
:101770008DF809A08DF80A7002AB93E80300FFF71B
:10178000BBFC082231460C48FEF7BAFE35E7002FB5
:101790003FF456AF2046FFF795FC064600283FF47D
:1017A0004FAF082221460448FEF710FE0248FFF71B
:1017B00014F9FFF717FE20E77C0D0020F0B587B085
:1017C0006C4684E803002046FFF75AFE2E4FBDF812
:1017D00004202E4D064678B194E803000490ADF83D
:1017E00014103AB1BDF810204FF6FF739A4201D0A1
:1017F000FFF788FC264C41E094E8030004AB83E843
:1018000003000290002AF5D0BDF8084038782A7805
:101810004FF6FF718C42EDD0441C04F00704944253
:101820000AD019461A4B082203EBC000FEF7CEFD82
:101830003C70FFF7A7FDDDE7FFF71CFC08223146EF
:1018400014483E702E70FEF75BFED3E704EBC00039
:10185000FFF716FEB0B12B7834F8330004EBC30366
:101860005E889A88D98840EA064042EA0141FFF73B
:1018700049FC2B78013303F007032B7028783B7861
:101880008342E3D107B0F0BDC40D0020C50D002098
:10189000840D00207C0D0020024B0146186802F0E8
:1018A00062B900BF000C0020024B0146186802F02C
:1018B0005CB900BF000C0020014B186802F057B95A
:1018C000000C0020024B93F90000C0F3C7007047E2
:1018D000D60D0020024B187800F00700704700BFBB
:1018E000D60D0020034B187810F0070018BF012018
:1018F000704700BFD60D0020014B1878704700BF1D
:10190000D80D0020024B1A7810431870704700BFA2
:10191000D80D0020024A137823EA000010707047A7
:10192000D80D0020014B00221A707047D80D0020FE
:10193000024B1A7810431870704700BFD90D002071
:10194000024A137823EA000010707047D90D002076
:10195000014B00221A707047D90D0020014B1878F6
:10196000704700BFD70D0020704708B5FFF7FCFF98
:1019700008BD0000064A5278520708B506D5054A48
:101980001178814202D01070FFF7EFFF08BD00BF51
:10199000AC150020D70D002008B5044B1A781AB1F9
:1019A00000201870FFF7E1FF08BD00BFD70D002031
:1019B00010B5124B124A1B781278124C1343124A7C
:1019C00020681278037032B11343037002F08AF872
:1019D00008B1FFF7E1FF24680C4908222046FEF712
:1019E000C5FC48B1214609480822FEF7EFFC204615
:1019F000BDE8104002F044B810BD00BFD80D002073
:101A0000D90D0020000C0020D70D0020CE0D0020A5
:101A1000704708B5FFF7FCFF08BD00000A4A52787E
:101A2000520710B50CD5094C41EAC0012170FFF7EF
:101A3000B9FB94F90000C0F3C700FFF7EAFF10BD3F
:101A4000BDE81040FFF7AEBBAC150020D60D00205E
:101A500008B5034B00201870FFF7DBFF08BD00BF7F
:101A6000D60D002008B50C4A92F9003023EA000098
:101A700040B2107042070ED1DBB283420BD0074B4D
:101A80005B785B0707D5C0F3C700FFF797FBBDE89E
:101A90000840FFF7DDBF08BDD60D0020AC150020C3
:101AA000094A08B55378C3F3800181420AD060F334
:101AB00082035370108800F045F8BDE8084002200A
:101AC000FFF7D0BF08BD00BFAC150020044B58780D
:101AD000C0F3800080F0010000F00100FFF7E0BFDC
:101AE000AC1500200120FFF7DBBF0020FFF7D8BFB7
:101AF00008B500F085FEBDE808404FF6FF710020F4
:101B000000F060BE08B5002000F00FFE4FF6E8635D
:101B1000984203D1BDE8084001F0BFB9002008BDDC
:101B2000022000F0F3BD032000F0F0BD10B504204A
:101B300000F0ECFD0446222000F0E8FD44EA00201D
:101B400080B210BD10B5C1B20446042000F02CFED6
:101B5000210A2220BDE8104000F026BE01460F20D9
:101B600000F03EBE0146132000F03ABE0020FFF711
:101B7000F9BF08B50020FFF7F1FFFFF7F7FF08BD39
:101B800010B500F03DFE4FF6E861002000F01AFEAF
:101B90000021022000F008FE00210320002400F0B4
:101BA00003FE1D4B214604201C7000F0FDFD0421A6
:101BB000222000F0F9FD2146052000F0F5FD214628
:101BC000062000F0F1FDFF21072000F0EDFD214689
:101BD000082000F005FE21460D2000F0E5FD21461D
:101BE000182000F0FDFD2146172000F0DDFD214604
:101BF0001C2000F0F5FD2146202000F0E3FD2146E9
:101C0000182000F0EDFD204601F05BF901F083F9AA
:101C1000FFF7AFFF10BD00BF6E0D0020FFF7B0BF94
:101C200001460E2000F0C0BD08B502F031F8024BAD
:101C30001860024B186008BDE00D0020E40D002084
:101C400008B502F025F8024B1860024B186008BD79
:101C5000E00D0020DC0D00207047704708B5FFF74D
:101C6000FCFF08BD704708B5FFF7FCFF08BD00008A
:101C700008B5054800F050FA00F0C0FDFFF7ECFF92
:101C8000FFF7ECFF08BD00BF1121010801207047DC
:101C900008B5FFF7FBFF08BD7047704708B5FFF7B1
:101CA000FBFFFFF7FAFF08BD08B500F057FABDE8E3
:101CB0000840FEF73EBE08B501F0E8FF01F03BF931
:101CC00000F07EFAFFF7F0FF01F01EFCFFF7CBFFFC
:101CD00008BD00002DE9F04F85B03E4F00F08AFAB4
:101CE0003E46002420460134E4B216F8015B00F0C1
:101CF0005FFA052C46D08542F4D0374B1B789B0702
:101D000001D500F05BFAFFF7C3FF4FF00008019028
:101D10000DF108095FFA88FA504600F049FA17F801
:101D2000013B9842044625D043405FFA83FB0025DF
:101D300001261BEA060F15D0019B9BB1344214BF4C
:101D4000012300238DF808508DF809A08DF80A3082
:101D500001F0D4FF40F00100ADF80C0099E8030059
:101D6000FEF712FE0135EDB27600052DF6B2E0D198
:101D700007F8014C08F10108B8F1050FCAD1FFF7C7
:101D800053FF1BE08542B8D1144D01F0B7FF2B88FB
:101D90008342044612D04FF6FF73ADF8083000239B
:101DA0008DF80A3001F0AAFF40F00100ADF80C00F8
:101DB00004AB13E90300FEF7E7FD2C8001F0FAFB0A
:101DC00008B1FFF73DFF00F0DFFB05B0BDE8F04FC5
:101DD000FEF7C4BDEA0D0020EF0D0020E80D002045
:101DE00010B500F0B9F8B0F5A44F04463AD2B0F5FA
:101DF000A24F80F08780E72815D8DF280AD8A728C7
:101E00000AD8A4286CD8012804D0031F9BB2A12BA8
:101E100028BF0024204610BDA0F1A8039BB2162BBA
:101E200063D90024F6E7B0F5A04F0FD2B0F5804F8C
:101E300063D2FF2804D8EF28F3D940F4A0440FE080
:101E4000A0F580739BB2B3F5F85FE1E7C0F38503BB
:101E5000012400F00300844044EA431444F40D4498
:101E6000A4B2D7E7B0F5AC4F1AD2B0F5AA4FC0B2C2
:101E700051D2B4F5A84F0ED28308B4F5A64F00F0A6
:101E800003004FF0010404FA00F040EA43143FD28B
:101E900044F40C44E4E74AF2F40444EA0024B9E7C9
:101EA000B0F5B44F0CD2B0F5B24F3CD2A0F5B04370
:101EB0009BB2FF2BB5D84AF2F00040EA0424CFE7EA
:101EC000A0F5C0439BB2B3F5005FAAD2C0F30420D3
:101ED00000F0C8F8000200F4F850E4B204431FE038
:101EE000A0F1240444F48044BAE75834134BE4B21C
:101EF00033F8144044F488448CE7C0F30B0444F4F2
:101F0000204487E7C4B24AF2F10343EA042481E79C
:101F100044F40A44A4E700F0A5F8040204F4F854D9
:101F200044F4005476E700F00F0000F09BF8C4F38F
:101F3000031440EA042444F4104491E7BE6A010803
:101F400007B5ADF80410019901F02BFC03B05DF862
:101F500004EBFFF745BF0000E72850D8DF2807D87B
:101F6000312865D00ED8292858D02A2867D0704744
:101F7000A0F1E003072B42D8DFE803F01541242944
:101F800033413D42392804D0822802D0352840D040
:101F90007047334B1A7892075CD15B7813F0080FC7
:101FA00018BF292070472E4A1378D9074ED452788B
:101FB00012F0010F23D013F0100F08BFE32018BF59
:101FC00000207047264B1B7813F0040FF2E7244AD9
:101FD000137859073CD45278D2073BD413F0100F32
:101FE000EDE71F4B5A78910709D51B7813F0100FB6
:101FF00008BFE720E3E71A4B1B781A07F6D47047AF
:10200000174A1378190727D452789107E6D5E420A8
:102010007047134B1B7813F0200FC1E7104B1A7851
:1020200092061BD45B7813F0080F18BF3920704755
:102030000B4B1B7813F0400F18BF2A207047084B3A
:102040001B7813F0400F18BF3120704739207047BC
:10205000E2207047E0207047E62070473520CEE749
:10206000AC150020294A1378590707D500F018014C
:10207000082927D100F0F70040F00400190707D520
:1020800000F01801182926D100F0E70040F01400F4
:102090005278D10707D500F01801082924D100F0A3
:1020A000F70040F00100920707D500F01802182A47
:1020B00023D100F0E70040F01100DB0648BF00F03C
:1020C000E700704700F01401042904BF00F0FB0092
:1020D00040F00800D2E700F01401142904BF00F01A
:1020E000EB0040F01800D3E700F01101012904BF14
:1020F00000F0FE0040F00800D5E700F01102112AC0
:1021000004BF00F0EE0040F01800D6E7AC15002048
:102110000020704700207047014B1860704700BFD7
:10212000040C0020FFF7E4BC08B500F063F840F6AB
:10213000B83002F0F2FD00F05DF8002000F038F851
:10214000C30705D5FFF7EEFFBDE8084001F0F8BD75
:1021500008BD08B5FFF7E8FF08BD000008B5FFF7A8
:10216000D1FC08B9FFF75AFDFFF7DAFC084B1870ED
:10217000FFF7DCFC074B1880FFF7EBFFFFF7D3FC02
:10218000FEF7D9FF044B1878BDE80840FEF7EFBF13
:10219000EF0D0020AC1500206F0D0020704708B532
:1021A000FFF7FCFF08BD704708B5FFF7FCFF08BD4F
:1021B000014B185C704700BFB3150020704700004A
:1021C00010B50524FEF7ECF9224600210748FEF77A
:1021D00097F9224600210648FEF792F9204600F0C2
:1021E0001FF8BDE81040FEF719BB00BFAE15002078
:1021F000B315002013B5084C2046FEF76FFA0749C7
:1022000003460522204600F00CF80190FEF708FB7B
:10221000019802B010BD00BFAE150020B31500201C
:102220007047F8B50D4606461746FEF79FF83A4642
:10223000044631462846FEF7C9F8201E18BF012083
:10224000F8BD08B502F0BAF8FFF735FDBDE8084063
:1022500002F0CAB808B502F0CDF8FFF73BFDBDE8C3
:10226000084002F0E7B808B501F0D6FC02F0A4F887
:10227000FFF7FEFCFFF7E5FFFFF7ECFFFFF70EFDB2
:10228000FAE70000164B1B78D90707D5154B1878CD
:1022900040007F2820D808B3C0B270479A0703D502
:1022A000104B18788000F4E75B0703D50D4B1878C6
:1022B000C000EEE70C4B1B7863B10C4A0949127859
:1022C00008789342F4D210FB03F0C000B0FBF2F0A8
:1022D00080B2DEE70820DFE77F20704701207047EB
:1022E000FA0D00200A0C0020FB0D00200B0C002032
:1022F000154B1B78D90705D5144B1878800800B307
:10230000C0B270479A0703D5104B18784008F6E71B
:102310005B0705D50D4B18787F28F0D97F207047D3
:102320000B4B1B785BB10B4A084912780878934233
:1023300036BF10FB03F080B2B0FBF2F0ECE70120F7
:10234000DEE70120704700BFFA0D00200E0C0020D0
:10235000FC0D00200F0C0020F02808B505D1FFF778
:1023600091FF4042294BD87008BDF12802D1FFF7F8
:1023700089FFF7E7F22805D1FFF784FF4042234B9E
:102380009870F1E7F32802D1FFF77CFFF7E7F9280F
:1023900004D1FFF7ADFF1D4B1871E5E7FA2803D113
:1023A000FFF7A6FF4042F6E7FB2805D1FFF7A0FFA5
:1023B0004042164B5871D7E7FC2802D1FFF798FF2F
:1023C000F7E700F10C03DBB2042B08D80F4A012316
:1023D000F43803FA00F0537818435070C4E7FD282E
:1023E00005D10B4A137843F001031370BCE7FE28B4
:1023F00004D1074A137843F00203F6E7FF28B3D16C
:10240000034A137843F00403EFE700BFF40D002004
:10241000FA0D0020364BF02893F902200AD193F9E7
:10242000031000290CDA0021D97052B9314A002179
:10243000117006E0F1280DD193F903100029F2DCA8
:1024400072B11A795B7913435AB2002B4FD12A4BE0
:102450001A707047F22806D1002AF1DA00229A7029
:1024600093F90320E1E7F32802D1002AF6DCE7E73D
:10247000F92893F9041004D10029E1DD0021197134
:10248000DEE7FA2802D10029DADAF7E7FB2893F928
:10249000051004D10029D3DA00215971D0E7FC28B6
:1024A00002D10029F8DCCBE700F10C01C9B2042904
:1024B00007D8F43801218140587820EA010058708B
:1024C000BEE7FD2805D10D48017821F0010101701A
:1024D000B6E7FE2804D10948017821F00201F6E7A9
:1024E000FF28ADD10548017821F00401EFE77047DE
:1024F000F40D0020FB0D0020FC0D0020FA0D002043
:1025000008B501F0FBFB094BDA7899780A431CBF48
:10251000074A10801A795B7913431CBF054B18805A
:10252000BDE80840014801F0B3BA00BFF40D002037
:10253000F00D0020F20D002008B50622054800210C
:10254000FDF7DEFF044A00231370044A1370044AA7
:10255000137008BDF40D0020FB0D0020FC0D0020C1
:10256000FA0D002090F902305BB990F9033043B9BD
:1025700090F904302BB990F90500003818BF0120FC
:10258000704701207047000037B5574C062221469E
:102590006846FDF71BFF00239DF80220A370E3703F
:1025A000237163719DF8033013430AD04F4B188891
:1025B00001F0A9FB4E490B783BB34E4A127890428A
:1025C0002DDC9DF804209DF8053013430BD04A4BB9
:1025D000188801F098FB49490B78002B4CD0484AE9
:1025E0001278904252DC4048694601F0C5FA18B9A9
:1025F0003D48FFF7B7FF08B1FFF782FF06226946A3
:102600003948FDF7E3FE03B030BD3E4A127802EBD5
:102610008202B0EB420FD4DD01330B7001E0FF2BDF
:10262000FAD19DF902503DB1FFF72CFE002DCCBF31
:102630000123FF235843A0709DF903503DB1FFF7DC
:1026400021FE002DCCBF0123FF235843E07094F9F5
:102650000220002AB5D094F90330002BB1D0B52167
:102660004A43121201FB03F308BF01221B1208BFE9
:102670000123A270E370A4E7234A127802EB8202DE
:10268000B0EB420FAFDD01330B7001E0FF2BFAD14D
:102690009DF904503DB1FFF72BFE002DCCBF012367
:1026A000FF23584320719DF905503DB1FFF720FEEF
:1026B000002DCCBF0123FF235843607194F90420FF
:1026C000002A90D094F90530002B8CD0B5214A43D4
:1026D000121201FB03F308BF01221B1208BF0123E2
:1026E000227163717FE700BFF40D0020F00D002020
:1026F000FB0D0020090C0020F20D0020FC0D002035
:102700000D0C0020080C00200C0C002007B5002345
:10271000014601220DF107008DF8073000F072F834
:102720009DF8070003B05DF804FB07B500230146E0
:1027300002220DF10600ADF8063000F063F8BDF896
:10274000060003B05DF804FB07B504220146002330
:102750000DEB0200019300F055F8019803B05DF80D
:1027600004FB07B501228DF8071001460DF10700A3
:1027700000F04DF803B05DF804FB07B50222ADF898
:10278000061001460DF1060000F041F803B05DF8B7
:1027900004FB07B50422019101460DEB020000F095
:1027A00036F803B05DF804FB38B50C460546FFF774
:1027B000ADFFA04205D021462846BDE83840FFF7CE
:1027C000D0BF38BD38B50C460546FFF7AEFFA04276
:1027D00005D021462846BDE83840FFF7CEBF38BDBA
:1027E00038B50C460546FFF7AFFFA04205D021469D
:1027F0002846BDE83840FFF7CCBF38BD00F0A4B98B
:1028000000F03CB80B460146184600F051B80B46A4
:102810000146184600F0DEB808B5064B4FF480625A
:1028200000211846FDF76CFE4FF48162C0F80024C9
:1028300008BD00BF000E002010B5064C94F804340B
:1028400033B900F0FFFA10B1012084F8040410BD80
:102850000220FCE7000E002010B5074C94F8043469
:102860003BB100F00CFB18B1002384F804340120C4
:1028700010BD0220FCE700BF000E002038B5FFF7B6
:10288000DBFF044618B9FFF7E7FF204638BD00F02C
:10289000DFFA0546FFF7C0FF012C06D1FFF7DCFF8A
:1028A00000280CBF002505F001052C46EDE70000CF
:1028B00008B5034608469918B1F5806F05D8044954
:1028C0001944FDF783FD012008BD0020FCE700BF8F
:1028D000000E0020F8B506460F4615460024AC420F
:1028E00001D10120F8BD07EB440106EB440000F0E4
:1028F000CBFA0028F6D00134F1E7F8B506460F46CA
:1029000015460024AC4201D10120F8BD37F814105F
:1029100006EB440000F0A6FA0028F6D00134F1E7F7
:1029200073B500F095FA50B3FFF786FF1849184EBB
:1029300005464FF400720020FFF7DFFF044698B110
:1029400011A3D3E900234FF48061304600F0E2FB8D
:102950000422CDE9000169464FF48060FFF7CDFF06
:10296000002814BF02240024012D01D1FFF774FFB9
:102970004FF48163C6F80034204602B070BD0446AF
:10298000FAE700BFAFF3008025232284E49CF2CB5A
:10299000000E0020044BD3F80034B3F5804F01D370
:1029A000FFF7BEBF01207047000E002010B5084C95
:1029B0000146D4F8000400F055FA40B1D4F80034D0
:1029C0000233C4F80034BDE81040FFF7E3BF10BD88
:1029D000000E00208318B3F5806F2DE9F743814680
:1029E0000E46154604D90024204603B0BDE8F08306
:1029F000534C044421463046FDF7B8FC002800F053
:102A00009D802A4631462046FDF7E0FCFFF714FF83
:102A1000074648BBFFF720FFE5E7012D2AD019F054
:102A2000010F27D1B9F5804F24D23378727843EA69
:102A30000223012B1ED8002B14BF6FF05F036FF031
:102A40007F0343EA5923002063F307004FEA590349
:102A500063F30F2080B2FFF7A9FF0128044660D17D
:102A6000023D09F102090236002DD6D1FFF792FF8F
:102A700004465AE0B9F13F0F0FD8307849F04003CF
:102A8000DBB243EA0020FFF791FF0128044648D15A
:102A9000013D09F101090136E6E7052D4FF0050278
:102AA0004FF000010DF10300A84628BF4FF00508C4
:102AB000FDF726FDC9F3024343EAC8038DF8003051
:102AC00042464FEA192331460DF103008DF80130DB
:102AD0008DF80290FDF77AFCBDF80000FFF766FF65
:102AE000012804461DD1BDF80200FFF75FFF012851
:102AF000044616D1012D0FD0BDF80400FFF756FF94
:102B0000012804460DD1032D06D9BDF80600FFF7B4
:102B10004DFF0128044604D1A5EB0805C1444644F5
:102B2000A2E714F0FD0F18BF0024012F7FF45CAF63
:102B3000FFF792FE00283FF456AF55E7012453E714
:102B4000000E0020000000002DE9FF47FFF764FEA3
:102B500000F076F9044610B9FFF75EFEA2E058498E
:102B6000574D4FF400720020FFF7B4FE044610B931
:102B7000FFF752FEF0E750A3D3E900234FF4806142
:102B8000284600F0C7FA042206460C464FF480603F
:102B900002A9FFF79FFEDDE902239C4208BF96428F
:102BA00001D0FFF739FE4FF4816700260DF10601D1
:102BB000384600F069F900286AD0BDF80630002BCD
:102BC00065D0C3F38111012907F10204ADF8083083
:102BD000DAB247D002294BD000296AD10DF10A019F
:102BE000204600F051F9002863D09DF809309DF887
:102BF0000A109DF8082043EA01234FEA02485BBA15
:102C00009BB208F4E02848EA0308C2F3C20908EBC3
:102C10000903B3F5806F07F104044FEAD20A48D8DC
:102C20001AF0060F06D003A9204600F02DF900285F
:102C30003FD0BC1D1AF0040F06D00DF10E01204646
:102C400000F022F9A8B302344A460DF10B0105EB5E
:102C50000800FDF7BBFBB4F5804F01D3012018E05D
:102C60002746A3E702F03F02C3F30723AB54F2E782
:102C7000510201F478511B0A41EA4303591CB1F592
:102C8000806F16D2C2F34012EA546E54E3E701207B
:102C90003C46C5F8004448B9FFF742FE0446002808
:102CA0003FF45AAF204604B0BDE8F087FFF772FE4C
:102CB000F4E70020EDE700BF25232284E49CF2CB5B
:102CC000000E0020094BDA68D2030AD4DA6812F049
:102CD000E00F08D1DB6813F0100F0CBF05200320B4
:102CE0007047012070470220704700BF003C02403F
:102CF00037B50146FFF7E6FF0024FF2501280FD175
:102D000011B9062003B030BD01940195019B1BB998
:102D1000FFF7D8FF0139F1E7019B013B0193F5E78C
:102D2000002908BF0620EDE738B5044640F6FF70DD
:102D3000FFF7DEFF05282BD11D4D2B6923F0F8038B
:102D40002B611C4B9C4224D2A3F580439C422AD287
:102D5000A3F580439C4228D2B4F1006F34BF072210
:102D600000222B6943EAC20343F002032B612B6963
:102D700043F480332B6140F6FF70FFF7B9FF06285C
:102D80001EBF2B6923F0FA032B61094BF122DA6095
:102D900038BD04F17844A4F54044B4F5804F34BF05
:102DA00003220722DDE70222DBE70122D9E700BF89
:102DB000003C024000C00008144B00F178429A42E7
:102DC00070B505460E461ED81F20FFF791FF052857
:102DD00018D10F4C236923F440732361236943F412
:102DE00080732361236943F0010323611F202E8038
:102DF000FFF77EFF06281EBF236923F0010323612E
:102E0000F123E36070BD0720FCE700BFFEFF070071
:102E1000003C0240044B1A69002ABFBF034A5A60B3
:102E200002F188325A607047003C02402301674536
:102E3000024A136943F0004313617047003C0240AB
:102E40000120704708B5FFF7E5FF012008BD00002D
:102E500008B50348FFF768FF431F5842584108BDB3
:102E600000C00008C94300F1006008B589B200F550
:102E70004040FFF7A1FF431F5842584108BD08B525
:102E8000FFF7D6FF012008BD00F1006000F54040CB
:102E90000388DB430B800120704708B52320FFF730
:102EA00035FC232801D0002008BD2420FFF72EFC8C
:102EB0000428F8D12520FFF729FC431E5842584129
:102EC000F2E710B5041E14BF2321FF212320FFF7D2
:102ED0006BFC002C14BF0421FF212420FFF764FCAD
:102EE000002C18BF0121BDE8104008BFFF2125209C
:102EF000FFF75ABC704708B52620FFF707FC08BD4E
:102F0000704710B50446FFF7FBFFE1B22620BDE88D
:102F10001040FFF749BC08B50020FFF7D2FF0020A2
:102F2000FFF7EFFF00F0E8FB00F07EFCBDE8084093
:102F30000120FFF7C6BF08B5FFF7DCFFFFF7DBFF97
:102F4000FFF7DEFFFFF7A9FF18B9BDE80840FFF75C
:102F5000E2BF08BD10B58C78FCB1A0F5BE43123BB2
:102F60000F2B24D81238C0B200F069FC0024204690
:102F700010BD0120FEF716F9032202210120FDF702
:102F80003FFCF3E70120FEF719F90322022101209B
:102F9000FDF736FCEBE70220F5E745F610739842A3
:102FA000F0D045F611739842F5D00124DFE745F6DD
:102FB00010739842DDD045F611739842D7D10220A4
:102FC000D8E7FF2303707047F8B50378013B044648
:102FD0000D46122B5FD8DFE803F00A1438494F5B27
:102FE0005E5E5E5E5E61656B768184879200002323
:102FF00043700A23837029462046BDE8F84001F05B
:103000009DB94378022B0DD0032B0ED0012B17D185
:1030100000F03EFE030EA370030CE370030A23715D
:103020006071E8E7FFF767FFF4E7471C0026F0B29E
:10303000FFF7BEF80136052E07F8010FF7D1DAE7E2
:1030400029462046FFF7BDFFD5E74378022BF7D18D
:10305000E378807840EA0320237940EA03406379EB
:1030600040EA036000BAFFF74CFFC4E7C2788178FA
:10307000407800F016FBD1E742790379817843EA82
:1030800002235BBAC27840789BB200F020FBB2E723
:1030900000F032FBAFE7FF230370ACE700F094FBD6
:1030A0006070A8E700F092FB030A6370A070A2E7CB
:1030B000A3784078E17840EA032040BA221D80B22C
:1030C00000F087FB97E7A3784078E17840EA032097
:1030D00040BA221D80B200F093FB8CE700F0A4FB05
:1030E00089E700F0D3FADBE7A3784078E17840EA9B
:1030F000032040BA221D80B200F02AFB7BE7A378B0
:103100004078E17840EA032040BA221D80B200F006
:1031100035FB70E7F0B5441800251946A04201D3ED
:103120001046F0BD10F8013B5A4093184FEA021EBA
:103130004FEA011C41EB01074CEA127C13EB0E0332
:1031400047EB0C074FEA421E9B184FEA411C41EB2C
:1031500007074CEAD26C13EB0E0347EB0C074FEA60
:10316000C21E4FEAC11C13EB0E034FEA02264CEAC3
:10317000526C4FEA012141EA126147EB0C079A19A0
:1031800047EB0103F118AA18C8E7000038B5054657
:103190008878002800F0288145F661539D4208D0C8
:1031A00020D845F615439D4216D845F601439D4269
:1031B00017D9FEF7BBFC8D4C45F615439D42208088
:1031C0002AD845F601439D4215D82088FEF7BAFC5F
:1031D000FDF750FF002004E0A5F5B9437A3B082B2A
:1031E000E7D938BD45F6A5539D42E2D0A5F5BB43CE
:1031F0002D3B022BF4E7A5F5B845033D122D45D82C
:10320000DFE805F04E525662666A6E7480888C90D4
:103210009CA0A4A8AECAB60045F602539D420ED8A3
:1032200045F6F9439D42D0D9A5F5B9457B3D072D1B
:1032300042D8DFE805F0457B7F6199A8BBBF45F622
:1032400061539D4200F0B880A5F5BB45253DABB26A
:103250000A2BBAD80A2DB8D801A353F825F000BF1D
:10326000C9330108CB310108CB310108CB3101084A
:10327000CB310108CB310108CB310108CB3101083A
:10328000973201080D330108D9330108237843F040
:103290000103237099E7637843F00803637094E7B0
:1032A000237843F00203F4E7237843F00403F0E7C4
:1032B000237843F00803ECE7637843F00103EDE77C
:1032C000637843F00203E9E7237843F01003E0E773
:1032D000237843F02003DCE7237843F04003D8E76A
:1032E000FDF7C8FE237843F08003D2E7237823F06C
:1032F0000C0343F00C03CCE7637823F0030343F0A3
:103300000303CBE723786FF30003C2E763786FF31F
:10331000C303C3E723786FF34103BAE723786FF35E
:103320008203B6E723786FF3C303B2E763786FF3E2
:103330000003B3E763786FF34103AFE723786FF3DC
:103340000413A6E723786FF34513A2E723786FF3FE
:1033500086139EE7FDF78EFE23786FF3C71398E779
:10336000237823F00C0394E7637823F0030395E7B5
:103370002378C3F3800282F00102D2B262F38203A7
:1033800062F3C30385E76378DA4302F0010262F374
:10339000000362F3410381E7FDF76CFE2378C3F37A
:1033A000C01282F0010262F3C71372E70120FEF738
:1033B00037FC0AE70020FAE72378C3F3001282F013
:1033C000010262F3041364E72378C3F3000282F07E
:1033D000010262F300035CE76378C3F3C00282F08A
:1033E000010262F3C30359E70120FAE6AC1500209D
:1033F000F8B5174B17491F5C174BC20800F00700C0
:103400008D5C16499B5C8E5C0341054113F0010401
:1034100046FA00F005F0010500F0010602D0E120B7
:10342000FDF7DEFA15B1E620FDF7DAFA3846FDF7CA
:10343000C4FB15B1E620FDF753FB14B1E120FDF705
:103440004FFB26B1BDE8F8402C20FDF7B6BBF8BD18
:103450000C6B0108EC6A01088C6B0108FC6A01081E
:103460002DE9F041234F04460E464FF00A0820781C
:1034700000283DD0012838D16378012B0ED1A078E7
:10348000A51CFDF79AFB2C4601343546002DEED0E5
:103490006420013D01F041FCEDB2F7E7022B04D1BD
:1034A000A078A51CFDF79CFAEDE7032B04D1A078CA
:1034B000A51CFDF715FBE6E7042B01D00134E3E77B
:1034C0002246002512F8023FD95D4907144606D46A
:1034D000002DD9D0642001F020FC013DF8E7303BFD
:1034E00008FB053512F8013FEEE7FFF781FFCBE758
:1034F000BDE8F081016901084FF4165001F0B6B93A
:1035000008B5FDF70EF908BD2DE9F843254DDFF8A4
:103510009890DFF89C8002232B700024E7B20126EC
:1035200059F8270000F00F01202206FA01F120F0DF
:103530000F0002F0C6FA58F8270000F00F01202211
:1035400006FA01F120F00F0002F0BBFA34442A78A9
:10355000E3B29A42E2D8FFF7CFFF134C2F78134E15
:10356000134D0020C3B29F4201D8BDE8F88354F840
:10357000041B55F804CB21F00F0301F00F011A6969
:103580002CF00F030CF00F0C1B6923FA0CF35B00FB
:10359000CA4003F0020302F00102134306F8013BA4
:1035A0000130DFE70E120020AC6B01080A12002088
:1035B000B46B01082DE9F04100272D4E2D4DB84682
:1035C0003378FCB2A34202D84046BDE8F0812A4BD2
:1035D00053F8241021F00F0301F00F011A69274B53
:1035E00053F8240020F00F0300F00F001B69C340C4
:1035F000CA405B0002F0010203F002031343204AB9
:10360000115D01F0030098422DD043EA8103DBB243
:1036100013551C4A03F00F03D35C2A5D13445BB2BD
:10362000032B2B5521DD184A135D00210133204661
:103630001355FFF765FF01222B57033308DA124AAF
:10364000135D0121013B20461355FFF759FF01226D
:103650002B57594201F0030103F0030358BF4B42BB
:103660002B5548EA02080137AAE70022E4E700BF29
:103670000E12002008120020AC6B0108B46B010888
:103680000A1200209C6B01080C12002004207047D5
:1036900052000A2303FB0121322202FB00102730D3
:1036A0007047032838B510D804290ED8042A0CD83E
:1036B000FFF7EEFF0546FFF729F80402681CFFF745
:1036C00025F8A4B2204380B238BD0020FCE70328CF
:1036D00070B51C460FD804290DD8042A0BD8FFF763
:1036E000D7FF210A0546FFF75FF8E1B2681CBDE885
:1036F0007040FFF759B870BD2DE9F047DFF84C80F6
:103700000024474600265FFA84F914E0FDF71AF812
:10371000A042C8BF37F81530EAB2D8BF01235146DE
:1037200048460135FFF7D3FF052DEFD10136052EB1
:1037300007F10A0703D000255FFA86FAE6E70134AD
:10374000042C08F13208DCD1BDE8F0872C6A0108AE
:10375000F8B5144600F1270556180027B44200D1E9
:10376000F8BDA5F12703C72B06DC2846FEF7CEFFE0
:10377000207001350134F1E72770FAE770B514467F
:1037800000F127055618B44200D170BDA5F12703FA
:10379000C72B03DC21782846FFF706F801340135F2
:1037A000F1E782B00328ADF804100AD89DF805109F
:1037B000042906D89DF80420042A02D802B0FFF795
:1037C00070BF002002B070471020704740F21130E7
:1037D0007047F8B5144600F1EF0556180027B442BB
:1037E00000D1F8BDA5F1EF03B3F5447F06DC284610
:1037F000FEF78CFF207001350134F0E72770FAE7FF
:1038000070B5144600F1EF055618B44200D170BDF2
:10381000A5F1EF03B3F5447F03DC21782846FEF7DA
:10382000C3FF01340135F0E710B5EF242046002135
:103830000134FEF7B9FFB4F5806FF7D110BD0F2842
:10384000F7B504461FD840F2FF30FEF75FFFD0B94E
:10385000EF25D4B9019401272846FEF757FF6E1CC7
:103860008DF804008DF8054068B1431E022B17D86F
:103870008DF8050030468DF80470FEF747FF0235DD
:103880008DF8060068B903B0F0BDB5F5806FFAD0C9
:103890002846FEF73BFF08B9013CE4B20135D8E702
:1038A0003546002101A8FFF7DBFDD5E745F61643B5
:1038B000984210B50C461BD1FEF71EF8A2780D4BAE
:1038C00072B100F0AA00002815BF012200223520A5
:1038D00029201A70FDF7E0FFFEF76AF8002010BDFE
:1038E0001B78002B14BF35202920FDF7DDFFF3E7FF
:1038F0000120F4E70F120020F8B5144682789DF8F5
:1039000018701D46284B92B11C7000F0F7F9274B38
:10391000188004F12003DBB2072B44D804F007041D
:103920000120A040C0B2BDE8F840FDF74EB91E78B6
:10393000A6422ED11D4B188800F0E5F9C72828D8DB
:10394000AE4205F1200415D006F12003DBB2072BAF
:1039500006D806F007060120B040C0B2FDF73EF9D8
:10396000E3B2072B06D805F0070301209840C0B248
:10397000FDF72BF93846E4B2FDF71FF9072C12D8F2
:1039800005F007050120A840BDE8F840C0B2FDF7EA
:1039900025B904F12003DBB2072B04D804F0070497
:1039A0000120A040F0E7F8BD101200201212002004
:1039B00013B545F6F64304469C4208460FD845F633
:1039C000F2439C4212D845F6D8439C421DD045F69E
:1039D000D9439C423ED045F6D7439C420FD08078D5
:1039E00000283BD01E4B00221A701CE0A4F5B944FD
:1039F000743C022C0ED8DFE804F0181F26002623A2
:103A00000093E1231A4621460AE027230093E52389
:103A1000E522F8E726230093E022E12345F6F3416F
:103A2000FFF76AFF002002B010BD27230093E422B5
:103A3000E52345F6F441F3E726230093E222E12350
:103A400045F6F541ECE727230093E622E52345F60A
:103A5000F641E5E7282300930123D9E70120E2E7B7
:103A600010120020014B1860704700BF1412002094
:103A7000024B186808B103681847704714120020F9
:103A8000024B1B680BB15B6818477047141200208B
:103A9000034A12681AB102210170936818477047EF
:103AA00014120020054A1188814205D0044B108071
:103AB0001B680BB1DB681847704700BF1A12002063
:103AC00014120020054A1188814205D0044B108051
:103AD0001B680BB11B691847704700BF1812002004
:103AE00014120020821C00F1080300209A4200D129
:103AF000704712F8011B0029F8D00130C0B2F5E779
:103B000039B1831C083013F8012B8A4203D0834259
:103B1000F9D1002070470120704730B54FF0FF32D7
:103B2000841C002314F8015B8D420ED0B2F1FF3FDC
:103B300002D1002D08BF1A460133DDB2062D5BB25B
:103B4000F0D1531C01D01044817030BD10B5831CDE
:103B50000022083013F8014B8C4208BF03F8012CF7
:103B60008342F7D110BDFFF7D8BFFFF7EFBF0622A2
:103B700000210230FCF7C4BC08B50622FCF7F6FBB6
:103B8000003818BF012008BD704708B5FFF7FCFFDB
:103B900008BD000008B50028034B14BF0220012017
:103BA0001870FFF7F2FF08BD1C12002008B5034B88
:103BB00003201870FFF7E9FF08BD00BF1C120020AA
:103BC000FFF7E8BF08B5034B01201870FFF7DDFFD2
:103BD00008BD00BF1C120020FFF7F4BF70477047FC
:103BE000704708B5FFF7FCFF08BD704708B5FFF741
:103BF000FCFF08BD10B5FFF7F1FFFEF7FBFAFFF77A
:103C0000EEFF0024E0B2FEF7D3FA18B90134052C18
:103C1000F8D110BD0120FCE708B501F053F9BDE86B
:103C2000084000F009BE08B5FCF76AFEBDE8084090
:103C300040F2A46001F071B808B5FDF773FEFDF71E
:103C400087FEFDF739FEFEF777FC0020FFF72AFF1D
:103C50000020FFF737FFBDE80840FCF758BE000022
:103C600008B5302383F3118801F03BF9044B054A72
:103C7000186000231360044A136083F3118808BDA1
:103C8000281200202012002024120020FFF7E8BF95
:103C900070B5302383F31188124D01F022F91249D7
:103CA0002B680A68C41AA242104A0AD9A3F58333C2
:103CB000E03B10682B600E4B04F583340344E03482
:103CC00013600C601668002181F3118809480A4AC4
:103CD0004FF47A750023E4FB0501FCF72DFB30441B
:103CE00070BD00BF281200202012002024120020E6
:103CF00088598F029F860100A086010008B5FFF752
:103D0000C7FF80B208BD10B50446FFF7C1FF001B16
:103D100080B210BDBFF34F8F0549064BCA6802F44D
:103D2000E0621343CB60BFF34F8F00BFFDE700BFDE
:103D300000ED00E00400FA0508B5FFF7EBFF000016
:103D400008B5024B024A1A60FFF7E4FFFCFF0020AF
:103D5000EF6916F07047704708B5302383F3118878
:103D6000034800F0A1FC002383F3118808BD00BFC5
:103D7000C00C002038B5094C104622460D460021E3
:103D800042F8041F40EA0520194600F055FB206068
:103D90006068002818BF204638BD00BF4C130020C3
:103DA00090F84A10074A0229137807D1012B01D055
:103DB000062B05D1044B52781A707047024A1370D3
:103DC000704700BF941300208413002038B50546C7
:103DD0000C46302383F311880F4B1A78042A03D042
:103DE000002383F3118838BD1A89120708D59B690F
:103DF00058694FF47A710C3000F09CFF0130EFD01D
:103E0000064A054854700323240A19461570947015
:103E100001F0CEFAE4E700BF401600208E13002028
:103E200013B50446074802680B461AB1019100F029
:103E3000B9FD019B044A0348214602B0BDE8104089
:103E400000F0A6BD6C1300204D3E010838B50C46AD
:103E5000302383F311880B78042B03D0002383F3E2
:103E6000118838BD104D2B78002BF7D00F4B1B78E5
:103E7000002BF3D00B899B0705D40D4A08230121A1
:103E8000204601F095FA28780A4BA0FB03034FF473
:103E90007A72002300F2E7300021FCF74DFA214648
:103EA0008000FFF7BDFFD9E768130020400D002018
:103EB00085130020A086010038B590F8443003F047
:103EC0007F02212A04467CD113F0800F90F8450030
:103ED00021D0022819D003280ED0012871D194F8DE
:103EE00048302BB94A4AA2630822E263236438BDF2
:103EF0000023A363E363F9E7B4F84830002B60D1F3
:103F0000444AA2630120E063F0E7434BA36301202E
:103F1000E0630023EAE70A2836D00B280ED00928F0
:103F20004FD194F8483013F0FD0F4AD13B4BA363B7
:103F30000223E3633A4B23640120D8E7B4F84850E6
:103F4000F5B994F84630334A003B18BF012313708B
:103F5000314B1A78A2B1302282F311881878314B94
:103F6000A0FB03034FF47A72002300F2E730002134
:103F7000FCF7E2F921468000FFF752FF85F3118834
:103F80000023A363E363D6E794F84720224B1A701B
:103F9000002AF5D0302282F311881878214BA0FB3B
:103FA00003034FF47A72002300F2E7300021FCF79C
:103FB000C3F921468000FFF733FF002383F3118804
:103FC000DEE7B4F8442040F281639A4216D194F8B7
:103FD0004920616894F848304D6894F8471043EAE6
:103FE0000223204694F84620A84708B900207EE71F
:103FF0004368A3630368E36300239CE70A4B93F8D9
:104000009230002BF2D02046BDE8384000F02EBBA5
:1040100085130020400D0020681300209413002019
:10402000A13D0108A0860100100C002010B5064A31
:10403000064C117824784B1C03F00F039C421EBFE2
:10404000034C1370605410BDC8150020C915002022
:10405000B815002013B505293FD8DFE801F0323E3E
:1040600003323240302383F31188224C224A0190DC
:10407000012101F04BF9214A0198032101F046F991
:1040800094F89010019804F1440201F03FF994F87B
:104090009210019819B104F1680201F037F918483B
:1040A00000F0CDFA002383F31188164B1B7813B16F
:1040B0000520FFF7BBFF022002B0BDE81040FFF76C
:1040C000B5BF0846FFF7B2FF302383F311880C48D1
:1040D00000F092FA002383F3118802B010BD302360
:1040E00083F31188064800F09FFA002383F31188B8
:1040F0000520E1E7100C0020BC6B0108E06B010813
:10410000C00C00208D1300207047000008B510225D
:1041100004480021FCF7F4F9034A00231370034A12
:10412000137008BDB8150020C8150020C91500205F
:1041300070B5284D284C28782378284E00219842C5
:1041400030D101B1207070BD2370254B01221A704F
:10415000244B93F84F10081E18BF0120FFF726FDCF
:10416000E9E723701E4B00221A70FFF765FD1D4B17
:1041700093F84F10081E18BF0120FFF721FDDAE762
:104180002370184B93F84F10081E18BF0120FFF73B
:1041900001FDD0E7002123700846F8E72370FFF700
:1041A00011FDC8E71A460133B25C03F00F03012189
:1041B000052AC4D80FF2040C5CF822F09D410108D6
:1041C0003F41010881410108954101084941010829
:1041D00063410108C8150020C9150020B81500204A
:1041E0008D1300204016002010B50446144800F13D
:1041F0000802826500F11C02C26500F13002C2674C
:1042000000F18C01B03000F0B5F90E4901F1240045
:1042100000F0DAF9626D936B23F40023936341F2AB
:10422000883000F07AFD0849204601F032F8626DCE
:10423000936B43F400239363044B00221A6010BD78
:10424000100C00209C0C0020046C01086C13002052
:1042500010B5044601F030F8626D0749936B23F402
:1042600000239363204601F014F8626D936B43F4CE
:104270000023936310BD00BF046C0108014B187844
:10428000704700BF8413002038B50546302383F300
:104290001188104C2378042B0DD123899B070ED451
:1042A0000C482A460121082301F082F80A48082216
:1042B0002946FCF78BF8002383F3118838BD236966
:1042C00058694FF0FF310C3000F034FD2378042B97
:1042D000E6D0F0E7401600208513002007B5302314
:1042E000024683F311880F4B1978042905D0002367
:1042F00083F3118803B05DF804FB198909070AD517
:104300009B69019058694FF47A710C3000F012FDEE
:104310000130019AEBD003480623032101F048F84D
:10432000E5E700BF4016002001460320FFF74EBD21
:1043300001460420FFF74ABD70470000202910B451
:1043400003460A4608D1064850F8B01F4C68194683
:1043500023465DF8044B18475DF8044B704700BFD7
:10436000100C002070B50A4C88B004F1B005D4F8E8
:10437000B03020221E6A694600232846B04720B18B
:10438000C1B26846FEF720FEF1E708B070BD00BF7D
:10439000100C0020FFF7DEBC7047704708B5FFF730
:1043A000F9FF02F013F9FFF7F7FF08BD08B502F0B7
:1043B0004FF9FFF7F2FF08BDFFF70EBC08B5FFF796
:1043C000A5FE0648FFF710FF054B064A1A6041F2AA
:1043D0008830BDE8084000F0A0BC00BF40160020B7
:1043E000AC130020440D0020014B1868FFF73ABBC6
:1043F000AC13002010B50E4CFFF79AFE2378052B66
:1044000015D12378052B05D0FDF7D2FABDE8104071
:10441000FEF776B8FFF707FCFFF7ECFB0028F0D0BB
:10442000204600F0D7FF2046FFF712FFE9E710BD56
:1044300040160020FFF796BF10B5040A032C0FD0DA
:1044400007D8012C23D0022C07D1124B5B2013601C
:1044500010BD212C0DD0222C12D000200346F6E7EF
:10446000C0B20228F9D80C4B0C4953F82030405CFC
:10447000EDE70229F1D80A4B092053F82130E6E78D
:104480000229EAD8074B084853F82130EFE7074BD9
:104490001220DCE73F6C0108146C0108206C010855
:1044A000246C0108306C01083C6C01089A6C01080E
:1044B00013B5446BE36F1A681178042915D1217A7A
:1044C000022912D11979128901238B4013420CD190
:1044D00001A904F1440000F003FE024628B1E46F94
:1044E000019B2179206800F063FF02B010BD0C3001
:1044F00000F090BD4FF0FF330C3000F08BBD443026
:1045000000F056BE4FF0FF33443000F051BE0C3087
:1045100000F063BD4FF0FF310C3000F05EBD443061
:1045200000F026BE4FF0FF32443000F021BE70B5DF
:10453000C36F1A6811780429044616D1017A02293A
:1045400013D15979528901238B4013420DD10C307C
:1045500000F0FEFC024640B1E56FA36A6979286865
:10456000043BBDE8704000F011BF70BD406BFFF729
:10457000DEBF00007FB50346104A43F8042B012636
:1045800043600F4B067202900193CB6800930D4677
:1045900004464B690A6A0C30314600F0B7FC094BFF
:1045A0000193AB680093EA692B690294314604F1E8
:1045B000440000F072FD04B070BD00BF0C6E010835
:1045C0006D450108B14401080B68302282F311885F
:1045D0000A7903EB820290614A79093243F822009A
:1045E0008A7912B103EB8203986102230372C167D7
:1045F000002383F31188704738B504460125022152
:10460000043000F0ECFB04F10C0025756FF00101A3
:1046100000F0C3FB84F84C5004F144006FF001013A
:10462000BDE8384000F0B9BB10B5012104460430A4
:1046300000F0D5FB0023237584F84C3010BD38B54D
:10464000044600250C3000F078FC04F14400257588
:1046500000F03AFD201D84F84C50012100F0BFFB12
:104660002046BDE83840FFF762BF000090F84430B4
:1046700003F06003202B07D190F84520212A4FF04A
:10468000000303D81F2A06D800207047222AFBD136
:104690008363C36303E0034A82630722C263036444
:1046A000012070475C0D002073B5C36F1A68117844
:1046B0000429044627D1017A022924D119791589C0
:1046C00001238B401D401ED100F14406304600F00E
:1046D000B4FDC0B1304601A900F002FDE36F1A7EBF
:1046E00006464AB101981A692946121A3044FBF766
:1046F00007FFE36F1B690193E06F019B017900687D
:10470000324600F055FE02B070BDF0B500EB8103FB
:1047100085B09E6904460D46FEB1302383F31188AF
:1047200004EB8507301D082100F059FBFB685B692D
:104730001B6806F144001BB1019000F0DEFC0198FB
:1047400003A900F0CDFC024648B1039B2946204650
:1047500000F02EFE002383F3118805B0F0BDFB6846
:104760005A691268002AF5D01B8A013B1342F1D125
:10477000F36F1B7E002BEDD104F14402E6E7093113
:1047800010B550F82140C4B1302383F311880421BF
:10479000601800F024FBE26F1368527903EB820388
:1047A00004F10C00DB689B69596800F0DBFB2046D4
:1047B000FFF7BDFE002383F3118810BD7047000092
:1047C000024B034A1A60034A5A607047CC15002016
:1047D000A01600200000022070477047FEE700008E
:1047E00070B5144C082560682368A268043B014634
:1047F0008A4219D8D31C1B1AC11E23F003038A4214
:1048000038BF00231844E368DA1C121AC11E22F0D4
:104810000302994288BF00220021FBF771FE013D8F
:1048200004F11004DFD170BD53F8046F41F8046B3C
:10483000DEE700BF346E010838B5084C01230025BF
:1048400023706560FFF7BCFF0549064800F0DEF9FC
:104850000223237085F3118838BD00BFD8150020CE
:10486000B86E0108E015002000F0D2B8034A516884
:1048700053685B1A9842FBD8704700BF001000E0F5
:10488000024AD36A1843D062704700BFE015002087
:1048900010B503689C68A2420CD85C688A600B6003
:1048A0004C602160596099688A1A9A604FF0FF3312
:1048B000836010BD1B68121BECE7022938BF022180
:1048C00070B504460D460226601900F01BFB00F08F
:1048D00008FB041BA54203D8751C2E460446F3E7CB
:1048E000022E04D9BDE870400120FFF7C9BF70BD9A
:1048F000124B70B5D9610D4603F110014160022AD7
:104900001969826038BF0222016048601861A818E6
:10491000144600F0EAFA022600F0E3FA401B844253
:1049200004D80136A81900F0EDFAF5E7022E04D9F3
:10493000BDE870400120FFF7A3BF70BDE015002067
:10494000F8B506460D4600F0CCFA0F4A134653F868
:10495000107F9F4206D12A4601463046BDE8F84006
:10496000FFF7C6BFD169BB68441A2C1928BF2C4673
:10497000A34202D92946FFF7A0FF22463146034849
:10498000BDE8F840FFF784BFE0150020F0150020D7
:1049900010B4036100235DF8044BC2604361FFF76C
:1049A000CFBF000010B5194C236998420DD00368A1
:1049B0004268816813605A609A680A449A600023CA
:1049C00003604FF0FF33A36110BD2346026843F834
:1049D000102F53600022026022699A4203D1BDE881
:1049E000104000F08ABA936881680B44936000F02D
:1049F00078FA2269E1699268441AA242E4D9114422
:104A0000BDE81040091AFFF758BF00BFE0150020AD
:104A10002DE9F047DFF8BC8008F110072C4ED8F8DC
:104A2000105000F05EFAD8F81C40AA68031B9A42A6
:104A30003ED82B6814446A68C8F81C404FF000093F
:104A400013605A60C5F80090D8F81030B34201D115
:104A500000F053FA89F31188EB68296928469847D2
:104A6000302383F311886B69002BD8D000F039FA1A
:104A70006A69A0EB04094A4582460DD20220FFF77D
:104A8000FFFE0022D8F81030B34208D15146284624
:104A9000BDE8F047FFF72CBF121A2244F2E712EBF1
:104AA000090938BF4A4629463846FFF7F1FEB5E7FF
:104AB000D8F81030B34208D01444211AC8F81C00AA
:104AC000A960BDE8F047FFF7F8BEBDE8F08700BF7A
:104AD000F0150020E01500200023037582680369AB
:104AE0001B6899689142FBD25A680360426010606B
:104AF0005860704700230375826803691B689968D2
:104B00009142FBD85A680360426010605860704759
:104B100008B50846302383F311880A7D0023052A4F
:104B200006D8DFE802F00B050503120E8269136058
:104B30004FF0FF338361FFF7CFFF002383F311882A
:104B400008BD82699368013393604268036813600B
:104B50005A60EDE7FFF7C0BF054BD96808751868C4
:104B600002681A60536001220275D860FBF7CABB65
:104B7000E015002030B50C4BDD684B1C87B00446B7
:104B80000FD02B46094A6846FFF702FF2046FFF781
:104B9000E3FF009B13B16846FFF704FFA86907B065
:104BA00030BDFFF7D9FFF9E7E0150020114B0108F0
:104BB000044B1A68DB6890689B68984294BF002099
:104BC00001207047E0150020084B10B51C68D8681C
:104BD00022681A60536001222275DC60FFF78AFFA9
:104BE00001462046BDE81040FBF78CBBE0150020D5
:104BF000044B1A68DB6892689B689A4201D9FFF7F8
:104C0000E3BF7047E0150020FEE7000070B51B4BC6
:104C100001630025044686B085620E46586000F0A8
:104C200003F904F11003236163614FF0FF33A361C3
:104C300024606460A560E562E56100F052F92B46EE
:104C40000246C4E9082304F134010D4AE5658023D6
:104C5000204600F01BF80123E0600A4A0375009229
:104C600072680192B268CDE90223074B6846CDE92C
:104C7000043500F03DF806B070BD00BFD815002027
:104C8000C46E0108C96E0108094C01088B6002223C
:104C90004B62002308618A820B62CB610846704731
:104CA0008368C168A3F18C0243F81C2C026943F8A5
:104CB0004C2C426943F8482C0B4A43F82C2C022216
:104CC0000A4803F8142C002243F8180C43F8201C5F
:104CD00003F8132C43F8041C43F8082C43F80C2C5D
:104CE000A3F12800704700BF1D030108E015002054
:104CF00008B5FFF7D5FFBDE80840FFF72BBF000060
:104D0000024BDB6898610F20FFF726BFE0150020FB
:104D1000302383F31188FFF7F3BF08B50146302332
:104D200083F311880820FFF725FF002383F3118800
:104D300008BD0000054BDB6821B1036098610320CA
:104D4000FFF718BF4FF0FF30704700BFE01500209D
:104D500003682BB10022026099611846FFF7FABE82
:104D600070470000064BDB6839B1426818605A6032
:104D7000136043600420FFF7FDBE4FF0FF30704723
:104D8000E01500200368984206D01A68026050605F
:104D900099611846FFF7DEBE704738B504460D46E8
:104DA0002068844200D138BD036823605C6085615F
:104DB000FFF7D0FEF4E7C3691943037DC1610A2BF5
:104DC00003D18369194205D170470B2B06D1836942
:104DD0008B4303D100238361FFF7BCBE704770B5DE
:104DE000046806460D46B44200D170BDE3682B430B
:104DF000E36015B123691D4203D0A1686068FFF725
:104E0000DAFF2468EFE70000EFF3098305494A6BF6
:104E100022F001024A63683383F30988002383F395
:104E20001188704700EF00E0302080F3118862B6EF
:104E30000C4B0D4AD96821F4E0610904090C0A43BE
:104E4000DA60D3F8FC20094942F08072C3F8FC20F4
:104E50000A6842F001020A602022DA7783F8220011
:104E6000704700BF00ED00E00003FA05001000E00D
:104E700010B5302383F311880E4B5B6813F4006385
:104E800014D0F1EE103AEFF30984683C4FF08073D0
:104E9000E361094BDB6B236684F30988FFF788FE27
:104EA00010B1064BA36110BD054BFBE783F31188DE
:104EB000F9E700BF00ED00E000EF00E02F0301087C
:104EC0003203010808B500F03DFD00F0F9FD00F0E7
:104ED000D2F9FFF76BFABDE8084000F000B801F026
:104EE0002DBB4FF08043586A70474FF0804300223B
:104EF00058631A610222DA6070474FF08043002243
:104F0000DA6070474FF080435863704730B5039CB8
:104F10000172043304FB0325C361049B0363002176
:104F2000059B00604060C16042610261856104626E
:104F300042628162C162436330BD416A41610022C5
:104F40000161C2608262C2626FF00101FFF725BF9A
:104F500003694269934201D1C2680AB9181D7047BA
:104F60000020704703691960C2680132C260C269DB
:104F7000134482690361934224BF436A03610021A1
:104F8000FFF700BF38B504460D46E3683BB16269E0
:104F9000131D1268A3621344E362002007E0237A22
:104FA00033B929462046FFF7DDFE0028EDDA38BD8B
:104FB0006FF00100FBE7C368C269013BC36043694E
:104FC000134482694361934224BF436A43610023CF
:104FD0008362036B03B11847704770B530230446F2
:104FE00083F31188866A3EB9FFF7CCFF054618B1F6
:104FF00086F31188284670BDA36AE26A13F8015B44
:10500000A362934202D32046FFF7D5FF002383F328
:105010001188EFE72DE9F84F04460E469046994671
:105020004FF0300A8AF311880025AB46A76A4FB9C2
:1050300049462046FFF7A6FF20B187F3118828468E
:10504000BDE8F88FE76AA16A7A1AA8EB05079742CC
:1050500028BF1746402F16D930464022FBF7B6F935
:10506000A36A40334036A3624035A26AE36A9A429B
:1050700002D32046FFF79FFF8BF311884545DED210
:105080008AF31188D2E730463A46FBF79FF9A36AC4
:105090003B443E44A3623D44E7E710B5029C0172E5
:1050A000043303FB0421C36100238362C362039BB7
:1050B0000363049B00604060C460426102618161DF
:1050C00004624262436310BD026AC260426A426186
:1050D000026100228262C2626FF00101FFF75DBED1
:1050E000436902699A4201D1C26822B9184650F850
:1050F000043B0B60704700207047C368C2690133EE
:10510000C3604369134482694361934224BF436A85
:1051100043610021FFF736BE38B504460D46E3680B
:105120003BB123691A1DA262E2691344E3620020C5
:1051300007E0237A33B929462046FFF713FE0028FB
:10514000EDDA38BD6FF00100FBE703691960C26852
:10515000013AC260C269134482690361934224BF69
:10516000436A036100238362036B03B118477047EE
:1051700070B530230D460446114683F31188866AC4
:105180002EB9FFF7C9FF10B186F3118870BDA36A6D
:105190001D70A36AE26A01339342A36204D3E169FA
:1051A00020460439FFF7D1FF002080F31188EDE796
:1051B0002DE9F84F04460E46904699464FF0300AC6
:1051C0008AF311880025AB46A76A4FB949462046A5
:1051D000FFF7A2FF20B187F311882846BDE8F88FBA
:1051E000E76AA06A3A1AA8EB0507974228BF174654
:1051F000402F18D931464022FBF7E8F8A36A403324
:105200004036A3624035A26AE36A9A4204D3E16958
:1052100020460439FFF799FF8BF311884545DCD20E
:105220008AF31188D0E731463A46FBF7CFF8A36AF4
:105230003B443E44A3623D44E5E7026943699A4228
:1052400017D1C3689BB1836A8BB1043B9B1A0ED004
:105250001360C368013BC360C3691A448369026178
:105260009A4224BF436A03610023836201231846E4
:1052700070470023FBE700F0C5BC01230370002347
:10528000C36183620362C3624362036343608360FA
:10529000704738B50446302383F3118800254160F8
:1052A000C56005614561856100F0BCFC0223237087
:1052B00085F31188284638BD70B53023044683F342
:1052C0001188254600F014FD00260123666005F8CC
:1052D0000C3B1C3455F8043B7BB1586920B16FF08E
:1052E00001010C30FFF734FD55F8043C986920B1FA
:1052F0006FF001010C30FFF72BFDA54245F8046C5F
:10530000E8D1FFF775FC86F3118870BD70B500EB2E
:10531000810305465069DA600E46144618B114221E
:105320000021FBF7EDF8A06918B114220021FBF76A
:10533000E7F831462846BDE8704000F05FBDF8B59B
:10534000836803F001130446836000F1100500F147
:105350001C06002755F8043B7BB1586920B16FF05B
:1053600001010C30FFF7F4FC55F8043C986920B1BA
:105370006FF001010C30FFF7EBFCB54245F8047CFF
:10538000E8D12046BDE8F84000F0C4BDF0B400EB21
:1053900081044789E4680125A4698D403D43458126
:1053A00023600023A2606360E360F0BC00F0DABD1C
:1053B000F0B400EB81040789E468012564698D403D
:1053C0003D43058123600023A2606360E360F0BC7D
:1053D00000F05EBE10B50378052B044610D1426D77
:1053E000D2F8043843F00103C2F80438C820FFF7AC
:1053F00094FC626DD2F8043823F00103C2F804383B
:1054000010BD2DE9F0410223002604460370C66456
:10541000866000F10C0500F11C074FF0300855F8CC
:10542000043BABB188F3118855F8043C586920B1AE
:105430006FF001010C30FFF78BFC55F8043C9869C4
:1054400020B16FF001010C30FFF782FC86F3118868
:10545000BD4245F8046CE2D184F83460204600F087
:1054600069FC63681B6823B120460021BDE8F04158
:105470001847BDE8F081F8B5037880F8503005236F
:10548000037043681B6804460BB10421984700264B
:10549000A66004F10C0530271C3455F8043BABB171
:1054A00087F3118855F8043C586920B16FF0010169
:1054B0000C30FFF74DFC55F8043C986920B16FF0B3
:1054C00001010C30FFF744FC86F31188A542E4D1BA
:1054D000F8BD90F85020436802701B680BB105219D
:1054E0001847704770B590F83430044613B1002364
:1054F00080F8343004F14402204600F02AFD63684D
:105500009B68B3B994F8443013F0600539D000219A
:10551000204600F0F5FF0021204600F0E7FF636819
:105520001B6813B1062120469847062384F83430BF
:1055300070BD204698470028E4D094F84B2094F89A
:105540004A3043EA0223E26B9A4288BFE36394F94C
:105550004430E56B002B4FF0300380F20881002DC2
:1055600000F0F780092284F8342083F311880021A9
:10557000E36BA26B2046FFF71BFF002383F3118828
:10558000D6E794F8452003F07F0343EA022340F274
:105590000232934200F0CA8021D8B3F5807F4DD00B
:1055A0000DD8012B44D0022B00F09880002BAED1F7
:1055B00004F14C02A2630222E2632364BDE7B3F567
:1055C000817F00F0A080B3F5407FA0D194F84630F1
:1055D000012B9CD1B4F84C3043F0020337E0B3F513
:1055E000006F52D01CD8B3F5A06F36D0A3F5C063BE
:1055F000012B8CD894F84920616894F848304E68A3
:1056000094F8471043EA0223204694F84620B04716
:1056100000283FF47CAF4368A3630368E3631AE0A8
:10562000B3F5106F36D040F6024293427FF46FAF6D
:105630005B4BA3630223E3630023BEE794F8463089
:10564000012B7FF464AFB4F84C3023F00203A4F8CC
:105650004C30A563E56325646FE7B4F84430B3F5D7
:10566000A06F0ED194F8463084F84E30204600F0FA
:10567000B9FB63681B6813B10121204698470323D7
:1056800023700023A363E36397E704F14F03A3634D
:105690000123C3E72378042B10D1302383F311882F
:1056A0002046FFF74CFE85F311880321636884F8D8
:1056B0004F5021701B680BB12046984794F8463034
:1056C000002BDED084F84F300423237063681B68FE
:1056D000002BD6D0022120469847D2E794F84830D4
:1056E0001D0603F00F0120460AD500F025FC012815
:1056F00004D002287FF40BAF2A4B9AE72A4B98E795
:1057000000F00DFCF3E794F84630002B7FF4FFAE79
:1057100094F8483013F00F01B3D01A06204602D592
:1057200000F002FFADE700F0F5FEAAE794F846307E
:10573000002B7FF4ECAE94F8483013F00F01A0D0AA
:105740001B06204602D500F0DBFE9AE700F0CEFEF5
:1057500097E7142284F8342083F311882B462A46D5
:1057600029462046FFF712FE85F31188E0E65DB179
:10577000152284F8342083F311880021E36BA26B97
:105780002046FFF703FEF8E60B2284F8342083F36B
:1057900011882B462A4629462046FFF709FEE3E7F3
:1057A000D26E0108CE6E0108D06E010838B590F8AF
:1057B00034300446002B42D0063BDAB20F2A38D8E8
:1057C0000F2B36D8DFE803F03B3535082636353564
:1057D0003535353535353B3B90F84A3090F84B2020
:1057E000C56B43EA02239D4214D2C3681B8AB5FBF2
:1057F000F3F203FB12556DB9302383F311882B4666
:105800002A462946FFF7D4FD85F311880A2384F838
:1058100034300EE0142384F83430302383F31188BD
:1058200000231A4619462046FFF7B0FD002383F3F4
:10583000118838BD036C03B198470023E7E70021C6
:10584000204600F05DFE0021204600F04FFE636818
:105850001B6813B10621204698470623D7E710B5E9
:1058600090F83430142B044629D017D8062B05D0D5
:1058700001D81BB110BD093B022BFBD800212046EB
:1058800000F03EFE0021204600F030FE63681B68F9
:1058900013B1062120469847062319E0152BE9D1BC
:1058A0000B2380F83430302383F3118800231A4609
:1058B0001946FFF77DFD002383F31188DAE7C368FB
:1058C0009B695B68002BD5D1036C03B1984700231B
:1058D00084F83430CEE700F1604303F561430901F9
:1058E000C9B283F80013012200F01F039A40430954
:1058F0009B0003F1604303F56143C3F880211A6004
:10590000704700F01F0301229A4043099B0003F1F6
:10591000604303F5614300F1604000F56140C3F866
:105920008020C3F88021002380F80033704708B539
:1059300000F028FEBDE80840FFF79ABA07211C20B6
:10594000FFF7C9BF1E4B1A6962F09F021A611A69FC
:1059500002F09F021A614FF0FF301A695A695861CC
:1059600000215A6959615A691A6A62F080521A62B2
:105970001A6A02F080521A621A6A5A6A58625A6A9D
:1059800059625A6A1A6C42F080521A641A6E42F0D6
:1059900080521A661A6E0B4A106840F480701060CC
:1059A000186F00F44070B0F5007F1EBF4FF48030D8
:1059B00018671967536823F400735360FFF7BEBF7D
:1059C0000038024000700040344B4FF080521A649F
:1059D000334A4FF4404111601A6842F001021A60E4
:1059E0001A689107FCD59A6822F003029A602B4B43
:1059F0009A6812F00C02FBD1196801F0F9011960E4
:105A00009A601A6842F480321A601A689203FCD5D0
:105A10005A6F42F001025A67204B5A6F9007FCD52B
:105A2000204A5A601A6842F080721A601C4A536811
:105A30005904FCD5194B1A689201FCD51A4A9A6090
:105A40000322C3F88C20194B1A68194B9A42194B40
:105A500021D1194A1168194A91421CD140F203120E
:105A60001A60144A136803F00F03032BFAD10B4B8F
:105A70009A6842F002029A609A6802F00C02082AC0
:105A8000FAD15A6C42F480425A645A6E42F480420F
:105A90005A665B6E704740F20372E1E700380240DD
:105AA000007000400418400400108838002004E012
:105AB00011640020003C024000ED00E041C20F41B3
:105AC00070472DE9F74FC2F3C31302F0030AC2F384
:105AD0008009C2F3C108C2F3411E01935746002258
